:100000000C9434000C943E000C943E000C943E0082
:100010000C943E000C943E000C943E000C943E0068
:100020000C943E000C943E000C943E000C943E0058
:100030000C943E000C943E000C943E000C943E0048
:100040000C943E000C943E000C943E000C943E0038
:100050000C943E000C943E000C943E000C943E0028
:100060000C943E000C943E0011241FBECFEFD8E04C
:10007000DEBFCDBF0E9440000C9456000C940000DF
:10008000259A2D9A80EA96E8A1E0B0E02D9A019792
:10009000A109B109D9F72D9880EA96E8A1E0B0E06E
:1000A0002D980197A109B109D9F7EBCFF894FFCFAB
:00000001FF
