:100000000C9434000C943E000C943E000C943E0082
:100010000C943E000C943E000C943E000C943E0068
:100020000C943E000C943E000C943E000C943E0058
:100030000C943E000C943E000C943E000C943E0048
:100040000C943E000C943E000C943E000C943E0038
:100050000C943E000C943E000C943E000C943E0028
:100060000C943E000C943E0011241FBECFEFD8E04C
:10007000DEBFCDBF0E9440000C94AA000C9400008B
:10008000CF93DF93CDB7DEB728970FB6F894DEBFD6
:100090000FBECDBF84E290E024E230E0F901208180
:1000A0002062FC01208385E290E025E230E0F90146
:1000B00020812062FC01208319821A821B821C820B
:1000C00014C085E290E025E230E0F9012081206251
:1000D000FC01208389819A81AB81BC810196A11D9D
:1000E000B11D89839A83AB83BC8389819A81AB815B
:1000F000BC81803A9648A140B1051CF385E290E0AE
:1001000025E230E0F90120812F7DFC0120831D8252
:100110001E821F82188614C085E290E025E230E03E
:10012000F90120812F7DFC0120838D819E81AF818B
:10013000B8850196A11DB11D8D839E83AF83B887BD
:100140008D819E81AF81B885803A9648A140B105E6
:080150001CF3A9CFF894FFCFC6
:00000001FF
